:080A01000267EFFF0269FFCE5E
:1009DC00E4FDFCC3ED9FEC9E501AE4FBFAC3EB94D0
:1009EC0072EA940050070BEB70010A80F00DED7069
:0409FC00010C80DF8B
:010A000022D3
:1009B50075985075CAF475CCF475CBFF75CDFF7578
:1009C500C834D2AC438901758A67758CFCD28CD248
:0709D500A9D2AFE4F5612295
:06088E008B728A7389746D
:10089400C2ACE4F575F576AB72AA73A974120A4377
:1008A400C3E5769FE5759E5020AB72AA73A9748543
:1008B400768285758312023FF5993099FDC29905B8
:0B08C40076E5767002057580CED2ACA0
:0108CF002206
:100A2500E56170FC8D63E4F5628B648A65896675A2
:0E0A35006101AB64AA65A966120226F599223A
:0300230002067062
:0E067000C0E0C083C082C0D075D01030985555
:10067E00C298E5616401607285993D75210075220D
:10068E0000E5377040E53824FE602C04703775396C
:10069E0000753A00E53DB40116053AE53A700205DB
:1006AE0039142428F8A63D75370075380280167562
:1006BE003700753804800E053AE53A700205391494
:0506CE002428F8A63D00
:1006D300309922C2990562E562C39563400575614D
:1006E300008012AB64AA65A966AF628F827583002E
:0E06F30012023FF599D0D0D082D083D0E032F1
:03000B0002098661
:10098600C0E0C0F0C083C082C0D075D008758A6749
:10099600758CFC12094BEF64084E7008FB7A0079DF
:0F09A600281207F7D0D0D082D083D0F0D0E03223
:040496008C578D589A
:10049A00E4F559F55AF55D755E01E55E6401455D61
:1004AA0060030205A1E55824FFFFE55734FFFEC3A8
:1004BA00E55A9FEE6480F8E5596480984003020586
:1004CA00A1E4F55DF55EF55B755C01C3E558955AE7
:1004DA00FFE5579559FEC3E55C9FEE6480F8E55B3E
:1004EA006480984003020596E55C24FFFFE55B34CF
:1004FA00FFFEEF25E0FFEE338F82F5831202C4FD83
:10050A00ACF0E55C25E0FFE55B338F82F5831202F0
:10051A00C4FFD3ED9FE5F06480F8EC6480984061F5
:10052A00E55C24FFFFE55B34FFFEEF25E0FFEE33D9
:10053A008F82F5831202C4F56085F05FE55C25E0E1
:10054A00FFE55B338F82F5831202C4FDE55C24FF6D
:10055A00FFE55B34FFFEEF25E0FFEE338F82F58384
:10056A00E5F08DF01202FCE55C25E0FFE55B338FD8
:10057A0082F583E55F8560F01202FC755D00755EA9
:10058A0001055CE55C7002055B0204D5055AE55A73
:07059A00700205590204A4E0
:0105A1002237
:0A0A0900021C0000021E0000C100E4
:1008D000E4F555F5561209B5120A6C120A58E4F5FA
:1008E0003BF53CE51F7F00FE7C007D1912028EC3A4
:1008F00074339FF51974FE9EF518EF24CDF51BEEA9
:0D09000034B9F51A7FE87E031209DC80FE91
:01090D0022C7
:100A580043B78043B880438910758BE0758DB1D258
:040A68008ED2AB225D
:03001B0002078D4C
:09078D00C0E0C0F0C0D075D0003E
:10079600E4FFFEAE3BAF3CE51F6F7003E51E6E60E7
:1007A6002EC3EF94B4EE940050258E1E8F1FE51FC6
:1007B6007F00FE7C007D1912028EC374339FF519EB
:1007C60074FE9EF518EF24CDF51BEE34B9F51A30FC
:1007D600000DE51AF58D851B8BC287C200800BE5DF
:0A07E60018F58D85198BD287D2001B
:0707F000D0D0D0F0D0E032C0
:1000260000C1814001C0804101C0804100C18140C2
:1000360001C0804100C1814000C1814001C08041B2
:1000460001C0804100C1814000C1814001C08041A2
:1000560000C1814001C0804101C0804100C1814092
:1000660001C0804100C1814000C1814001C0804182
:1000760000C1814001C0804101C0804100C1814072
:1000860000C1814001C0804101C0804100C1814062
:1000960001C0804100C1814000C1814001C0804152
:1000A60001C0804100C1814000C1814001C0804142
:1000B60000C1814001C0804101C0804100C1814032
:1000C60000C1814001C0804101C0804100C1814022
:1000D60001C0804100C1814000C1814001C0804112
:1000E60000C1814001C0804101C0804100C1814002
:1000F60001C0804100C1814000C1814001C08041F2
:1001060001C0804100C1814000C1814001C08041E1
:1001160000C1814001C0804101C0804100C18140D1
:1001260000C0C101C30302C2C60607C705C5C40491
:10013600CC0C0DCD0FCFCE0E0ACACB0BC90908C801
:10014600D81819D91BDBDA1A1EDEDF1FDD1D1CDCF1
:1001560014D4D515D71716D6D21213D311D1D01061
:10016600F03031F133F3F23236F6F737F53534F451
:100176003CFCFD3DFF3F3EFEFA3A3BFB39F9F838C1
:1001860028E8E929EB2B2AEAEE2E2FEF2DEDEC2CB1
:10019600E42425E527E7E62622E2E323E12120E021
:1001A600A06061A163A3A26266A6A767A56564A411
:1001B6006CACAD6DAF6F6EAEAA6A6BAB69A9A86881
:1001C60078B8B979BB7B7ABABE7E7FBF7DBDBC7C71
:1001D600B47475B577B7B67672B2B373B17170B0E1
:1001E60050909151935352929656579755959454D1
:1001F6009C5C5D9D5F9F9E5E5A9A9B5B9959589841
:10020600884849894B8B8A4A4E8E8F4F8D4D4C8C30
:1002160044848545874746868242438341818040A0
:100A13000F282A2A736B6A666E69616F2A2A00009F
:010A230000D2
:100A6C007A00793B75230075240075253B7537009A
:040A7C0075380122A6
:0A0846008B6B8A6C896D8C6E8D6FD0
:10085000E56F24FEFFE56E34FF8F82F58312023FC1
:10086000FEE56F24FFFDE56E34FF8D82F5831202F5
:100870003FFDEEF570EDF571E56F24FEFD12090EFA
:0D088000EFB57107EEB570037F01227F0018
:01088D002248
:08090E008B508A5189528D5370
:100916007DFF7FFFE4F554AE531553EE6022AB50D6
:10092600AA51A952AE5405548E8275830012023F15
:100936006FFE900026936DFFEE90012693FD80D703
:04094600EFFEEDFFD4
:01094A00228A
:1007F7008B3E8A3F894090000112023F24FD600F23
:1008070014601124FE601824F6601F8026802412CD
:1008170005A2801FAB3EAA3FA9401205A28014ABD8
:100827003EAA3FA94012037E8009AB3EAA3FA940DA
:0F08370012037E753700753801E4F539F53A2262
:0605A2008B418A428943EF
:1005A800E4F544F54590000312023F25E0F5449038
:1005B800000512023F25E0F5452405F54CE433F526
:1005C8004B900002E54512026C8523468524478539
:1005D8002548E4F54DF54EC3E54E95457480F8651C
:1005E8004D9850387E00E54E2544FFEE354DAB461C
:1005F800AA47A9488F82F58312023FFFAB41AA425E
:10060800A943E54E2403FDE4354D8D82F583EF12B1
:10061800026C054EE54E7002054D80BBAB41AA4207
:10062800A943E54C24FEFD12090E8E498F4AE5497F
:10063800FFAB41AA42A943E54C24FEFDE54B34FF3C
:100648008D82F583EF12026CE54C24FFFDE54B34F7
:10065800FF8D82F583E54A12026C854B26854C276F
:07066800AD27AC26120A25A4
:01066F002268
:06037E008B418A42894315
:1003840090000112023FF54490000312023F25E061
:10039400F54585234985244A85254BE54464067043
:1003A4003F90000412023FAB49AA4AA94B854582FB
:1003B40075830012026CAB41AA42A9439000051256
:1003C400023FFFE5452401FDE433AB49AA4AA94BAA
:1003D4008D82F583EF12026C7547007548088066BC
:1003E400E54464107060AB41AA42A9439000051231
:1003F400023F25E0F546754700754808E4F54EF5DB
:100404004FC3E54F95467480F8654E985038AB411C
:10041400AA42A943E54F2407FFE4354E8F82F583B2
:1004240012023FFFE5457C00254FFDEC354EAB49FC
:10043400AA4AA94B8D82F583EF12026C054FE54F52
:100444007002054E80BBAB41AA42A943E54824FE95
:10045400FD12090E8E4C8F4DE54CFFAB41AA42A90B
:1004640043E54824FEFDE54734FF8D82F583EF1212
:10047400026CE54824FFFDE54734FF8D82F583E5F2
:100484004D12026C854726854827AD27AC26120AF3
:010494002542
:010495002244
:10094B000522E52270020521E52264094521700B81
:10095B00F537753801F539F53A801BE52264044506
:10096B00217013D3E53A9404E539648094804006F2
:0B097B00753700753808AE37AF382222
:03000000020701F3
:0C070100787FE4F6D8FD75817602074889
:10022600BB010689828A83E0225002E722BBFE02D6
:09023600E32289828A83E4932209
:10023F00BB010CE58229F582E5833AF583E0225074
:10024F0006E92582F8E622BBFE06E92582F8E222BE
:0D025F00E58229F582E5833AF583E49322D8
:10026C00F8BB010DE58229F582E5833AF583E8F0C8
:10027C00225006E92582C8F622BBFE05E92582C874
:02028C00F2225C
:10028E00C2D5EC30E709B2D5E4C39DFDE49CFCEE8B
:10029E0030E715B2D5E4C39FFFE49EFE120329C3D7
:1002AE00E49DFDE49CFC800312032930D507C3E4D2
:0602BE009FFFE49EFE22FA
:1002C400BB0110E58229F582E5833AF583E0F5F078
:1002D400A3E0225009E92582F886F008E622BBFE55
:1002E4000AE92582F8E2F5F008E222E5832AF5839B
:0802F400E993F5F0A3E9932260
:1002FC00F8BB0111E58229F582E5833AF583E8F034
:10030C00E5F0A3F0225009E92582C8F608A6F022F0
:0D031C00BBFE09E92582C8F2E5F008F222D7
:100A4300E4FFFE120226600C0FEF70010E09E9703D
:050A5300F20A80EF2211
:10070D000208D0E493A3F8E493A34003F68001F22A
:10071D0008DFF48029E493A3F85407240CC8C333ED
:10072D00C4540F4420C8834004F456800146F6DFBC
:10073D00E4800B0102040810204080900A01E47E41
:10074D00019360BCA3FF543F30E509541FFEE493B1
:10075D00A360010ECF54C025E060A840B8E493A378
:10076D00FAE493A3F8E493A3C8C582C8CAC583CAA3
:10077D00F0A3C8C582C8CAC583CADFE9DEE780BE5B
:010A240000D1
:10032900BC000BBE0029EF8DF084FFADF022E4CCB8
:10033900F875F008EF2FFFEE33FEEC33FCEE9DEC81
:10034900984005FCEE9DFE0FD5F0E9E4CEFD22EDC7
:10035900F8F5F0EE8420D21CFEADF075F008EF2F11
:10036900FFED33FD4007985006D5F0F222C398FD02
:050379000FD5F0EA229F
:00000001FF
