:0A0CAC0042004FEFFF420051FFCE5F
:100D2B00E4FDFCC3ED9FEC9E501AE4FBFAC3EB947D
:100D3B0072EA940050070BEB70010A80F00DED7016
:040D4B00010C80DF38
:010D4F002281
:100D0300759850758920758780758DFE758BFED219
:100D13008ED2AC438901758A67758CFCD28CD2A9BB
:080D2300D2AFE4900049F02278
:0B0AE400900064EBF0A3EAF0A3E9F03F
:100AEF00C2ACE4A3F0A3F0900064E0FBA3E0FAA390
:100AFF00E0F912000E900067E0FCA3E0FDC39FEC4D
:100B0F009E5029900064E0FBA3E0FAA3E0F98D82E8
:100B1F008C83120686F5993099FDC299900068E092
:0E0B2F0004F07006900067E004F080BBD2ACCA
:010B3D002295
:100C1C00900049E070FA90004BEDF0E490004AF03F
:100C2C0090004CEBF0A3EAF0A3E9F09000497401BA
:100C3C00F090004CE0FBA3E0FAA3E0F912066DF58E
:020C4C009922EB
:0300230002075081
:10075000C0E0C0F0C083C082C0D075D01020980324
:030760000207EAA3
:10076300C298900049E064017003020820900025BC
:10077300E599F0900000E4F0A3F090001BE0FEA3E5
:10078300E0FFEE7062EF24FE604004705A90001D9B
:10079300E4F0A3F0900025E0FFB4012390001DE4F2
:1007A30075F0011206D5FC740725F0F58274003C40
:1007B300F583EFF090001BE4F0A37402F08028901F
:1007C300001BE4F0A37404F0801D900025E0FF906B
:1007D300001DE475F0011206D5FC740725F0F582BF
:0707E30074003CF583EFF008
:1007EA00309933C29990004AE004F0A3E0FF9000E8
:1007FA004AE0C39F4007900049E4F0801990004CFA
:10080A00E0FBA3E0FAA3E0F990004AE0F5827583E1
:10081A0000120686F599D0D0D082D083D0F0D0E0ED
:01082A00329B
:03000B00020C4E96
:100C4E00C0E0C0F0C083C082C0D075D008758A677E
:100C5E00758CFC120B3EEF64084E70097B017A0016
:100C6E007907120942D0D0D082D083D0F0D0E032B2
:0803D60090003FECF0A3EDF0F4
:1003DE00E4A3F0A3F0900045F0A304F0900045E0F4
:1003EE007004A3E06401600302052C900040E02439
:1003FE00FFFF90003FE034FFFEC3900042E09FEE0F
:10040E006480F8900041E0648098400302052CE47B
:10041E00900045F0A3F0900043F0A304F09000414B
:10042E00E0FEA3E0FFC3900040E09FFF90003FE09E
:10043E009EFE900043E0FCA3E0FDC39FEE6480F8B7
:10044E00EC648098400302051BED24FFFFEC34FFA3
:10045E00FEEF25E0FFEE338F82F5831206EBFDAC47
:10046E00F0900044E025E0FF900043E0338F82F5EA
:10047E00831206EBFFD3ED9FE5F06480F8EC648009
:10048E00984079900043E0FCA3E0FD24FFFFEC349C
:10049E00FFFEEF25E0FFEE338F82F5831206EBFFB2
:1004AE00900047E5F0F0A3EFF0ED25E0FFEC338F81
:1004BE0082F5831206EBFD900044E024FFFF9000CE
:1004CE0043E034FFFEEF25E0FFEE338F82F583E548
:1004DE00F08DF0120723900047E0FCA3E0FD9000A2
:1004EE0044E025E0FF900043E0338F82F583EC8DEE
:1004FE00F0120723900045E4F0A304F0900044E0CE
:10050E0004F07006900043E004F002042B900042C9
:0E051E00E004F07006900041E004F00203EAF1
:01052C0022AC
:1008B700E490003DF0A3F0120D03120DB5120CD811
:1008C700120D98E490003DF0A3F0C390003EE09431
:1008D7000990003DE064809480503A120A1CAC06EF
:1008E700AD0790003EE025E0FF90003DE033FE7449
:1008F700532FF58274003EF583ECF0A3EDF07F0FE4
:100907007E00120D2B90003EE004F0700690003D33
:10091700E004F080B57B017A0079537D097C0012F1
:1009270003D690005DE0FFA3E090001FCFF0A3EF98
:0A093700F07F647E00120D2B808912
:010941002293
:1000260000C1814001C0804101C0804100C18140C2
:1000360001C0804100C1814000C1814001C08041B2
:1000460001C0804100C1814000C1814001C08041A2
:1000560000C1814001C0804101C0804100C1814092
:1000660001C0804100C1814000C1814001C0804182
:1000760000C1814001C0804101C0804100C1814072
:1000860000C1814001C0804101C0804100C1814062
:1000960001C0804100C1814000C1814001C0804152
:1000A60001C0804100C1814000C1814001C0804142
:1000B60000C1814001C0804101C0804100C1814032
:1000C60000C1814001C0804101C0804100C1814022
:1000D60001C0804100C1814000C1814001C0804112
:1000E60000C1814001C0804101C0804100C1814002
:1000F60001C0804100C1814000C1814001C08041F2
:1001060001C0804100C1814000C1814001C08041E1
:1001160000C1814001C0804101C0804100C18140D1
:1001260000C0C101C30302C2C60607C705C5C40491
:10013600CC0C0DCD0FCFCE0E0ACACB0BC90908C801
:10014600D81819D91BDBDA1A1EDEDF1FDD1D1CDCF1
:1001560014D4D515D71716D6D21213D311D1D01061
:10016600F03031F133F3F23236F6F737F53534F451
:100176003CFCFD3DFF3F3EFEFA3A3BFB39F9F838C1
:1001860028E8E929EB2B2AEAEE2E2FEF2DEDEC2CB1
:10019600E42425E527E7E62622E2E323E12120E021
:1001A600A06061A163A3A26266A6A767A56564A411
:1001B6006CACAD6DAF6F6EAEAA6A6BAB69A9A86881
:1001C60078B8B979BB7B7ABABE7E7FBF7DBDBC7C71
:1001D600B47475B577B7B67672B2B373B17170B0E1
:1001E60050909151935352929656579755959454D1
:1001F6009C5C5D9D5F9F9E5E5A9A9B5B9959589841
:10020600884849894B8B8A4A4E8E8F4F8D4D4C8C30
:1002160044848545874746868242438341818040A0
:100CB6005400072A2A736B6A666E69616F2A2A00D6
:070CC6000000000000000027
:100DB5007A00791F9000027401F0A37400F0A37407
:0B0DC5001FF090001BE4F0A304F022DC
:1009B40090005DEBF0A3EAF0A3E9F0A3ECF0A3ED63
:0109C400F042
:1009C50090005DE0FBA3E0FAA3E0F9A3E0FCA3E05F
:1009D500FD24FEFFEC34FF8F82F583120686FEEDC3
:1009E50024FFFDEC34FF8D82F583120686FDEEEDC6
:1009F500FF900062EEF0A3EFF0900060E0A3E0242A
:100A0500FEFD120B97900062E0B50608A3E0B5075E
:060A1500037F01227F00B7
:010A1B0022B8
:0E0B9700900038EBF0A3EAF0A3E9F0A3EDF034
:100BA5007DFF7FFFE4A3F090003BE0FE14F0EE60D4
:100BB5002A900038E0FBA3E0FAA3E0F990003CE0BE
:100BC500FE04F08E827583001206866FFE90002665
:0F0BD500936DFFEE90012693FD80CCEFFEEDFFB8
:010BE40022EE
:10094200900026EBF0A3EAF0A3E9F0900026E0FB8A
:10095200A3E0FAA3E0F990000112068624FD600FDD
:1009620014601124FE601D24F66029803580331244
:10097200052D802E900026E0FBA3E0FAA3E0F912F9
:10098200052D801E900026E0FBA3E0FAA3E0F912F9
:100992000226800E900026E0FBA3E0FAA3E0F91203
:1009A200022690001BE4F0A304F0E490001DF0A3E3
:0209B200F02231
:0B052D00900029EBF0A3EAF0A3E9F036
:10053800E4A3F0A3F0900029E0FBA3E0FAA3E0F91C
:1005480090000312068625E090002CF0900005121A
:10055800068625E090002DF0E0FD2405FEE43390AA
:100568000033F0A3CEF0900002ED1206B390000223
:10057800E0F9A3E0FAA3E090002EC9F0A3EAF0A303
:10058800E9F0E4900035F0A3F090002DE0FF900032
:1005980035E0FCA3E0FDC39F7480F8EC64809850BC
:1005A8004990002CE0FF7E00ED2FFFEE3CFE90000E
:1005B8002EE0FBA3E0FAA3E0F98F828E8312068671
:1005C800FF900029E0FBA3E0FAA3E0F9ED2403FD86
:1005D800E43C8D82F583EF1206B3900036E004F018
:1005E8007006900035E004F0809F900029E0FBA39E
:1005F800E0FAA3E0F9900033E0A3E024FEFD120B3B
:1006080097900031EEF0A3EFF0900031E0FF9000FA
:1006180029E0FBA3E0FAA3E0F9900034E024FEFD12
:10062800900033E034FF8D82F583EF1206B390001B
:1006380031E0A3E0FF900034E024FFFD900033E0B8
:1006480034FF8D82F583EF1206B3900033E0FFA3E9
:10065800E0900005CFF0A3EFF0900005E0FCA3E0E8
:04066800FD120C1C57
:01066C00226B
:0B022600900029EBF0A3EAF0A3E9F040
:10023100900001120686FF90002CF0900003120638
:100241008625E090002DF0900002E0F9A3E0FAA3EA
:10025100E0900031C9F0A3EAF0A3E9F0EF64067081
:1002610063900029E0FBA3E0FAA3E0F990000412F7
:100271000686FF900031E0FBA3E0FAA3E0F99000CD
:100281002DE0FEF582758300EF1206B3900029E0A0
:10029100FBA3E0FAA3E0F9900005120686FFEE2425
:1002A10001FDE433FC900031E0FBA3E0FAA3E0F9A7
:1002B1008D828C83EF1206B390002FE4F0A37408B3
:1002C100F002035B90002CE06410600302035B907A
:1002D1000029E0FBA3E0FAA3E0F9900005120686ED
:1002E10025E090002EF0A3E4F0A37408F0E4900060
:1002F10036F0A3F090002EE0FF900036E0FCA3E082
:10030100FDC39F7480F8EC648098504E900029E002
:10031100FBA3E0FAA3E0F9ED2407FFE43C8F82F5AB
:1003210083120686FF90002DE0FD900037E02DFD41
:10033100900036E03400FC900031E0FBA3E0FAA32A
:10034100E0F98D828C83EF1206B3900037E004F060
:100351007006900036E004F0809A900029E0FBA33B
:10036100E0FAA3E0F990002FE0A3E024FEFD120BD8
:1003710097900034EEF0A3EFF0900034E0FF90008E
:1003810029E0FBA3E0FAA3E0F9900030E024FEFDB0
:1003910090002FE034FF8D82F583EF1206B39000B9
:1003A10034E0A3E0FF900030E024FFFD90002FE057
:1003B10034FF8D82F583EF1206B390002FE0FFA387
:1003C100E0900005CFF0A3EFF0900005E0FCA3E082
:0403D100FD120C1CF1
:0103D5002205
:100B3E00900001E004F07006900000E004F09000D8
:100B4E0000E07004A3E06409701090001BF0A30491
:100B5E00F0E490001DF0A3F08026900000E07004F9
:100B6E00A3E06404701AD390001EE0940490001D5C
:100B7E00E064809480400990001BE4F0A37408F0B8
:090B8E0090001BE0FEA3E0FF2231
:0A0CCD0008180000000000000000FD
:0A0DD000EF1F70011E144E70F72291
:100CD800D2A27F087E00120DD0C2A27F5A7E0012D7
:100CE8000DD0D2A27F087E00120DD0A2A292007F62
:0A0CF800647E00120DD0D2A2A2000B
:010D020022CE
:100D5000E4FDFC7D08EDD394004017C2A2EC13FC27
:100D6000D2A230A2034480FC7F047E00120DD01D6D
:040D700080E3AF0469
:010D7400225C
:020D7500AD07C8
:100D7700E4FB7B08EBD394004016C2A2ED1392A2CA
:100D87007F057E00120DD0D2A2EDC313FD1B80E4B8
:010D97002239
:100C7E00AC05AA07120CD87FCC120D757F4E120D43
:100C8E0075AF02120D75AF04120D757F7F120D75C3
:0E0C9E00120CD87FCC120D757F48120D7522F6
:100D9800120CD87F33120D75E4FBEBC39408500C8A
:0C0DA800120D5074182BF8A6070B80EEFB
:010DB400221C
:100BE500E4FFFEEEC39408502D74182EF8E6FDE4DC
:100BF500FCECC39408501CEF6D20E006EFC313FF17
:100C0500800AEF6418FFC313FF4480FFEDC313FD93
:060C15000C80DE0E80CD14
:010C1B0022B6
:100A8400120CD87FCC120D757F44120D75120CD840
:100A94007F55120D75E4FCECC39408500C74182CAB
:100AA400F8E6FF120D750C80EE7FBE120D75120D67
:100AB40050900069EFF0120D50A3EFF0120D50A307
:100AC400EFF0120D50A3EFF090006AE0540FFFC452
:0F0AD40054F0FF900069E054F0FEC4540F4FFF40
:010AE30022F0
:100A1C00120CD840FB7FCC120D757F44120D757FE4
:100A2C00647E00120DD0120CD840FB7F55120D7550
:100A3C00E4FCECC39408500C74182CF8E6FF120D6F
:100A4C00750C80EE7FBE120D75120D5090003FEFAD
:100A5C00F0120D50A3EFF0120D50A3EFF0120D5049
:100A6C00A3EFF0900040E0FD7C007D00FC90003F87
:070A7C00E0FFECEFFDAE040A
:010A83002250
:0300000002082BC8
:0C082B00787FE4F6D8FD75812002087289
:10066D00BB010689828A83E0225002E722BBFE028B
:09067D00E32289828A83E49322BE
:10068600BB010CE58229F582E5833AF583E0225029
:1006960006E92582F8E622BBFE06E92582F8E22273
:0D06A600E58229F582E5833AF583E493228D
:1006B300F8BB010DE58229F582E5833AF583E8F07D
:1006C300225006E92582C8F622BBFE05E92582C829
:0206D300F22211
:1006D500A3F8E0C5F025F0F0E582158270021583D8
:0606E500E0C838F0E82235
:1006EB00BB0110E58229F582E5833AF583E0F5F04D
:1006FB00A3E0225009E92582F886F008E622BBFE2A
:10070B000AE92582F8E2F5F008E222E5832AF5836F
:08071B00E993F5F0A3E9932234
:10072300F8BB0111E58229F582E5833AF583E8F008
:10073300E5F0A3F0225009E92582C8F608A6F022C5
:0D074300BBFE09E92582C8F2E5F008F222AC
:10000E00E4FFFE12066D600C0FEF70010E09E97031
:05001E00F20A80EF2250
:100837000208B7E493A3F8E493A34003F68001F218
:1008470008DFF48029E493A3F85407240CC8C333C2
:10085700C4540F4420C8834004F456800146F6DF91
:10086700E4800B0102040810204080900CACE47E69
:10087700019360BCA3FF543F30E509541FFEE49386
:10088700A360010ECF54C025E060A840B8E493A34D
:10089700FAE493A3F8E493A3C8C582C8CAC583CA78
:1008A700F0A3C8C582C8CAC583CADFE9DEE780BE30
:010CD700001C
:00000001FF
