:0809BB000262EFFF0264FFCEAF
:10097800E4FDFCC3ED9FEC9E501AE4FBFAC3EB9434
:1009880072EA940050070BEB70010A80F00DED70CD
:04099800010C80DFEF
:01099C002238
:1009510075985075CAF475CCF475CBFF75CDFF75DC
:10096100C834D2AC438901758A67758CFCD28CD2AC
:07097100A9D2AFE4F55C22FE
:060868008B748A7589768D
:10086E00C2ACE4F577F578AB74AA75A97612000ED2
:10087E00C3E5789FE5779E5020AB74AA75A976855F
:10088E007882857783120600F5993099FDC2990515
:0B089E0078E5787002057780CED2ACC0
:0108A900222C
:10099D00E55C70FC8D5EE4F55D8B5F8A6089617549
:0E09AD005C01AB5FAA60A9611205E7F5992213
:030023000206B41E
:0E06B400C0E0C083C082C0D075D01030985511
:1006C200C298E55C640160728599367518007519E7
:1006D20000E52E7040E52F24FE602C047037753043
:1006E20000753100E536B401160531E531700205B9
:1006F2003014241FF8A636752E00752F0280167549
:100702002E00752F04800E0531E53170020530147C
:05071200241FF8A636CB
:10071700309922C299055DE55DC3955E4005755C1C
:10072700008012AB5FAA60A961AF5D8F82758300FD
:0E073700120600F599D0D0D082D083D0E032E7
:03000B00020922C5
:10092200C0E0C0F0C083C082C0D075D008758A67AD
:10093200758CFC1208E7EF64084E7008FB7A0079A8
:0F0942001F1207D1D0D0D082D083D0F0D0E032B6
:04033E008C528D53FD
:10034200E4F554F555F558755901E55964014558D8
:100352006003020449E55324FFFFE55234FFFEC364
:10036200E5559FEE6480F8E55464809840030204EA
:1003720049E4F558F559F556755701C3E5539555B6
:10038200FFE5529554FEC3E5579FEE6480F8E556AB
:10039200648098400302043EE55724FFFFE556348B
:1003A200FFFEEF25E0FFEE338F82F58312064FFD4D
:1003B200ACF0E55725E0FFE556338F82F583120650
:1003C2004FFFD3ED9FE5F06480F8EC6480984061C4
:1003D200E55724FFFFE55634FFFEEF25E0FFEE333D
:1003E2008F82F58312064FF55B85F05AE55725E0BB
:1003F200FFE556338F82F58312064FFDE55724FF42
:10040200FFE55634FFFEEF25E0FFEE338F82F583E2
:10041200E5F08DF0120687E55725E0FFE556338FAC
:1004220082F583E55A855BF0120687755800755987
:10043200010557E5577002055602037D0555E5553E
:070442007002055402034C97
:010449002290
:1009D500E4F550F551D2A67580FFC2A61209511251
:0709E50009ED120A1380FE68
:0109EC0022E8
:070A1300D2A8D288D2AF2265
:100A0100AD071FED600BE4FEEEC3940D50F20E80B6
:010A1100F7ED
:010A120022C1
:0300030002044AAA
:10044A00C0E0C0D075D000C000C004C005C006C05E
:01045A00079A
:10045B00754F00C2A8C2AF7F0F120A0130B207D28C
:10046B00A8D2AF02050A20B2077F01120A0180F65B
:10047B00E4FCECC39404505B754E00E54EC394084A
:10048B00504E30B2077F01120A0180F620B2077F6F
:10049B0001120A0180F630B2147F01120A01054FD6
:1004AB00E54FC3941E40EFD2A8D2AF805274662C96
:1004BB00F8C000E6FFC313D000F6E54FC394084025
:1004CB000874662CF8E64480F6754F00054E80AB39
:1004DB000C809FE567F465666006D2A8D2AF801FDB
:1004EB00E569F465686006D2A8D2AF8012AF687573
:0F04FB0032008F33AF667534008F35D2A8D2AF81
:0F050A00D007D006D005D004D000D0D0D0E0323A
:1000260000C1814001C0804101C0804100C18140C2
:1000360001C0804100C1814000C1814001C08041B2
:1000460001C0804100C1814000C1814001C08041A2
:1000560000C1814001C0804101C0804100C1814092
:1000660001C0804100C1814000C1814001C0804182
:1000760000C1814001C0804101C0804100C1814072
:1000860000C1814001C0804101C0804100C1814062
:1000960001C0804100C1814000C1814001C0804152
:1000A60001C0804100C1814000C1814001C0804142
:1000B60000C1814001C0804101C0804100C1814032
:1000C60000C1814001C0804101C0804100C1814022
:1000D60001C0804100C1814000C1814001C0804112
:1000E60000C1814001C0804101C0804100C1814002
:1000F60001C0804100C1814000C1814001C08041F2
:1001060001C0804100C1814000C1814001C08041E1
:1001160000C1814001C0804101C0804100C18140D1
:1001260000C0C101C30302C2C60607C705C5C40491
:10013600CC0C0DCD0FCFCE0E0ACACB0BC90908C801
:10014600D81819D91BDBDA1A1EDEDF1FDD1D1CDCF1
:1001560014D4D515D71716D6D21213D311D1D01061
:10016600F03031F133F3F23236F6F737F53534F451
:100176003CFCFD3DFF3F3EFEFA3A3BFB39F9F838C1
:1001860028E8E929EB2B2AEAEE2E2FEF2DEDEC2CB1
:10019600E42425E527E7E62622E2E323E12120E021
:1001A600A06061A163A3A26266A6A767A56564A411
:1001B6006CACAD6DAF6F6EAEAA6A6BAB69A9A86881
:1001C60078B8B979BB7B7ABABE7E7FBF7DBDBC7C71
:1001D600B47475B577B7B67672B2B373B17170B0E1
:1001E60050909151935352929656579755959454D1
:1001F6009C5C5D9D5F9F9E5E5A9A9B5B9959589841
:10020600884849894B8B8A4A4E8E8F4F8D4D4C8C30
:1002160044848545874746868242438341818040A0
:1009C3000F1F2A2A736B6A666E69616F2A2A0000F9
:0109D3000023
:1009ED007A007932751A00751B00751C32752E0050
:0409FD00752F01222F
:0A0820008B6D8A6E896F8C708D71EC
:10082A00E57124FEFFE57034FF8F82F5831206001E
:10083A00FEE57124FFFDE57034FF8D82F583120613
:10084A0000FDEEF572EDF573E57124FEFD1208AABE
:0D085A00EFB57307EEB572037F01227F003A
:01086700226E
:0808AA008B498A4A894B8D4CF1
:1008B2007DFF7FFFE4F54DAE4C154CEE6022AB4957
:1008C200AA4AA94BAE4D054D8E82758300120600D1
:1008D2006FFE900026936DFFEE90012693FD80D768
:0408E200EFFEEDFF39
:0108E60022EF
:1007D1008B378A38893990000112060024FD600F99
:1007E10014601124FE601824F6601F8026802412F4
:1007F1000519801FAB37AA38A9391205198014AB26
:1008010037AA38A9391202268009AB37AA38A93983
:0F081100120226752E00752F01E4F530F5312205
:060519008B3A8A3B893C8D
:10051F00E4F53DF53E90000312060025E0F53D9011
:10052F00000512060025E0F53E2405F545E433F5F8
:10053F0044900002E53E12062D851A3F851B40852B
:10054F001C41E4F546F547C3E547953E7480F865D1
:10055F00469850387E00E547253DFFEE3546AB3FC8
:10056F00AA40A9418F82F583120600FFAB3AAA3B3E
:10057F00A93CE5472403FDE435468D82F583EF1250
:10058F00062D0547E5477002054680BBAB3AAA3BEF
:10059F00A93CE54524FEFD1208AA8E428F43E54291
:1005AF00FFAB3AAA3BA93CE54524FEFDE54434FFE9
:1005BF008D82F583EF12062DE54524FFFDE54434CA
:1005CF00FF8D82F583E54312062D85441D85451E5B
:0705DF00AD1EAC1D12099DC9
:0105E60022F2
:060226008B3A8A3B893C83
:10022C00900001120600F53D90000312060025E037
:10023C00F53E851A42851B43851C44E53D640670DA
:10024C003F900004120600AB42AA43A944853E82AB
:10025C0075830012062DAB3AAA3BA93C90000512FF
:10026C000600FFE53E2401FDE433AB42AA43A9445A
:10027C008D82F583EF12062D75400075410880665E
:10028C00E53D64107060AB3AAA3BA93C90000512A6
:10029C00060025E0F53F754000754108E4F547F58B
:1002AC0048C3E548953F7480F86547985038AB3A99
:1002BC00AA3BA93CE5482407FFE435478F82F58328
:1002CC00120600FFE53E7C002548FDEC3547AB42AD
:1002DC00AA43A9448D82F583EF12062D0548E54803
:1002EC007002054780BBAB3AAA3BA93CE54124FE12
:1002FC00FD1208AA8E458F46E545FFAB3AAA3BA9ED
:10030C003CE54124FEFDE54034FF8D82F583EF1280
:10031C00062DE54124FFFDE54034FF8D82F583E594
:10032C004612062D85401D85411EAD1EAC1D1209C1
:01033C009D23
:01033D00229D
:1008E7000519E51970020518E51964094518700B13
:1008F700F52E752F01F530F531801BE51964044598
:10090700187013D3E5319404E53064809480400671
:0B091700752E00752F08AE2EAF2F22AA
:03000000020745AF
:0C074500787FE4F6D8FD75817802078CFF
:1005E700BB010689828A83E0225002E722BBFE0212
:0905F700E32289828A83E4932245
:10060000BB010CE58229F582E5833AF583E02250AF
:1006100006E92582F8E622BBFE06E92582F8E222F9
:0D062000E58229F582E5833AF583E4932213
:10062D00F8BB010DE58229F582E5833AF583E8F003
:10063D00225006E92582C8F622BBFE05E92582C8AF
:02064D00F22297
:10064F00BB0110E58229F582E5833AF583E0F5F0E9
:10065F00A3E0225009E92582F886F008E622BBFEC6
:10066F000AE92582F8E2F5F008E222E5832AF5830C
:08067F00E993F5F0A3E99322D1
:10068700F8BB0111E58229F582E5833AF583E8F0A5
:10069700E5F0A3F0225009E92582C8F608A6F02262
:0D06A700BBFE09E92582C8F2E5F008F22249
:10000E00E4FFFE1205E7600C0FEF70010E09E970B8
:05001E00F20A80EF2250
:100751000209D5E493A3F8E493A34003F68001F2E0
:1007610008DFF48029E493A3F85407240CC8C333A9
:10077100C4540F4420C8834004F456800146F6DF78
:10078100E4800B01020408102040809009BBE47E44
:10079100019360BCA3FF543F30E509541FFEE4936D
:1007A100A360010ECF54C025E060A840B8E493A334
:1007B100FAE493A3F8E493A3C8C582C8CAC583CA5F
:1007C100F0A3C8C582C8CAC583CADFE9DEE780BE17
:0109D4000022
:00000001FF
