:10098A00759850758920758780758DFE758BFED296
:10099A008ED2AC438901758A67758CFCD28CD2A938
:0809AA00D2AFE4900042F022FC
:0B07FC00900048EBF0A3EAF0A3E9F046
:10080700E4A3F0A3F0900048E0FBA3E0FAA3E0F92B
:1008170012000E90004BE0FCA3E0FDC39FEC9E503E
:1008270029900048E0FBA3E0FAA3E0F98D828C83CE
:10083700120680F5993099FDC29990004CE004F0BA
:0A08470070C390004BE004F080BB8A
:010851002284
:10092800900042E070FA900044EDF0E4900043F04B
:10093800900045EBF0A3EAF0A3E9F09000427401BF
:10094800F0900045E0FBA3E0FAA3E0F9120667F592
:020958009922E2
:03002300020500D3
:10050000C0E0C0F0C083C082C0D075D01020980376
:0305100002059A47
:10051300C298900042E0640170030205D09000236A
:10052300E599F0900000E4F0A3F090001BE0FEA337
:10053300E0FFEE7062EF24FE604004705A90001DED
:10054300E4F0A3F0900023E0FFB4012390001DE446
:1005530075F0011206CFFC740725F0F58274003C98
:10056300F583EFF090001BE4F0A37402F080289071
:10057300001BE4F0A37404F0801D900023E0FF90BF
:10058300001DE475F0011206CFFC740725F0F58217
:0705930074003CF583EFF05A
:10059A00309933C299900043E004F0A3E0FF900041
:1005AA0043E0C39F4007900042E4F0801990004561
:1005BA00E0FBA3E0FAA3E0F9900043E0F58275833B
:1005CA0000120680F599D0D0D082D083D0F0D0E046
:0105DA0032EE
:03000B0002095A8D
:10095A00C0E0C0F0C083C082C0D075D008758A6775
:10096A00758CFC1207A3EF64084E70097B017A00AC
:10097A007907120744D0D0D082D083D0F0D0E032A9
:0409D10041004D0094
:1009B200E4FDFCC3ED9FEE6480F8EC648098500E79
:0E09C200E4FB0BEBB472FB0DBD00010C80E5F5
:0109D0002204
:1008A60012098A1209EDE4900021F0A3F0900021CC
:1008B600E07002A3E0600AAF9090001FE4F0A3EF9F
:1008C600F0900021E0FEA3E0FFEE7016EF14600D3D
:1008D60004700F90001FA3E0F4F59080D01208F288
:0C08E60080CB90001FA3E0F4F59080C1CF
:1008F20090004DE004F0E0C394084002E4F0900060
:100902004DE0FF7401A807088002C333D8FCF4F558
:1009120090AF90EFF4FEE4F490001FF0A3CEF07FCE
:06092200F47E010209B29F
:1000260000C1814001C0804101C0804100C18140C2
:1000360001C0804100C1814000C1814001C08041B2
:1000460001C0804100C1814000C1814001C08041A2
:1000560000C1814001C0804101C0804100C1814092
:1000660001C0804100C1814000C1814001C0804182
:1000760000C1814001C0804101C0804100C1814072
:1000860000C1814001C0804101C0804100C1814062
:1000960001C0804100C1814000C1814001C0804152
:1000A60001C0804100C1814000C1814001C0804142
:1000B60000C1814001C0804101C0804100C1814032
:1000C60000C1814001C0804101C0804100C1814022
:1000D60001C0804100C1814000C1814001C0804112
:1000E60000C1814001C0804101C0804100C1814002
:1000F60001C0804100C1814000C1814001C08041F2
:1001060001C0804100C1814000C1814001C08041E1
:1001160000C1814001C0804101C0804100C18140D1
:1001260000C0C101C30302C2C60607C705C5C40491
:10013600CC0C0DCD0FCFCE0E0ACACB0BC90908C801
:10014600D81819D91BDBDA1A1EDEDF1FDD1D1CDCF1
:1001560014D4D515D71716D6D21213D311D1D01061
:10016600F03031F133F3F23236F6F737F53534F451
:100176003CFCFD3DFF3F3EFEFA3A3BFB39F9F838C1
:1001860028E8E929EB2B2AEAEE2E2FEF2DEDEC2CB1
:10019600E42425E527E7E62622E2E323E12120E021
:1001A600A06061A163A3A26266A6A767A56564A411
:1001B6006CACAD6DAF6F6EAEAA6A6BAB69A9A86881
:1001C60078B8B979BB7B7ABABE7E7FBF7DBDBC7C71
:1001D600B47475B577B7B67672B2B373B17170B0E1
:1001E60050909151935352929656579755959454D1
:1001F6009C5C5D9D5F9F9E5E5A9A9B5B9959589841
:10020600884849894B8B8A4A4E8E8F4F8D4D4C8C30
:1002160044848545874746868242438341818040A0
:1009D5005400072A2A736B6A666E69616F2A2A00BA
:0709E500000000000000000B
:1009ED009000027401F0A37400F0A3741FF0900046
:0709FD001BE4F0A304F0224B
:1006E50090003BEBF0A3EAF0A3E9F0A3ECF0A3ED57
:0106F500F014
:1006F60090003BE0FBA3E0FAA3E0F9A3E0FCA3E053
:10070600FD24FEF58274FF3CF583120680FE74FF1D
:100716002DF58274FF3CF583120680FDEDFF9000F7
:1007260040EEF0A3EFF090003E120853900040E038
:0D073600B50608A3E0B507037F01227F0090
:010743002293
:06085200F9A3E024FEFD05
:0E085800900036EBF0A3EAF0A3E9F0A3EDF078
:100866007DFF7FFFE4A3F0900039E0FE14F0EE6018
:100876002A900036E0FBA3E0FAA3E0F990003AE004
:10088600FE04F08E827583001206806FFE900026AD
:0F089600936DFFEE90012693FD80CCEFFEEDFFFA
:0108A5002230
:10074400900024EBF0A3EAF0A3E9F0900024E0FB8E
:10075400A3E0FAA3E0F990000112068024FD600DE5
:1007640014600C24FE601824F660168022800B901E
:100774000024E0FBA3E0FAA3E0F91203CC8010808C
:1007840000900024E0FBA3E0FAA3E0F91202269013
:0F079400001BE4F0A304F0E490001DF0A3F0229A
:0B03CC00900027EBF0A3EAF0A3E9F09B
:1003D700E4A3F0A3F0900027E0FBA3E0FAA3E0F981
:1003E70090000312068025E090002AF09000051285
:1003F700068025E090002BF0E0FD2405FEE4339015
:100407000031F0A3CEF0900002ED1206AD9000028D
:10041700E0F9A3E0FAA3E090002CC9F0A3EAF0A367
:10042700E9F0E4900033F0A3F090002BE0FF900098
:1004370033E0FCA3E0FDC39F7480F8EC6480985020
:100447004690002AE0FF7E00ED2FFFEE3CFE900075
:100457002CE0FBA3E0FAA3E0F98F828E83120680DB
:10046700FF900027E0FBA3E0FAA3E0F98D828C83DD
:10047700A3A3A3EF1206AD900034E004F070AA9096
:100487000033E004F080A2900027E0FBA3E0FAA38A
:10049700E090003112085290002FEEF0A3EFF09099
:1004A700002FE0FF900027E0FBA3E0FAA3E0F9901C
:1004B7000032E024FEFD900031E034FF8D82F583A9
:1004C700EF1206AD90002FA3E0FF900032E024FF6B
:1004D700FD900031E034FF8D82F583EF1206AD9079
:1004E7000031E0FFA3E0900005CFF0A3EFF090000C
:0904F70005E0FCA3E0FD02092868
:0B022600900027EBF0A3EAF0A3E9F042
:10023100900001120680FF90002AF0900003120640
:100241008025E090002BF0900002E0F9A3E0FAA3F2
:10025100E090002FC9F0A3EAF0A3E9F0EF64067083
:1002610063900027E0FBA3E0FAA3E0F990000412F9
:100271000680FF90002FE0FBA3E0FAA3E0F99000D5
:100281002BE0FEF582758300EF1206AD900027E0AA
:10029100FBA3E0FAA3E0F9900005120680FFEE242B
:1002A10001FDE433FC90002FE0FBA3E0FAA3E0F9A9
:1002B1008D828C83EF1206AD90002DE4F0A37408BB
:1002C100F002035A90002AE06410600302035A907E
:1002D1000027E0FBA3E0FAA3E0F9900005120680F5
:1002E10025E090002CF0A3E4F0A37408F0E4900062
:1002F10034F0A3F090002CE0FF900034E0FCA3E088
:10030100FDC39F7480F8EC648098504D900027E005
:10031100FBA3E0FAA3E0F974072DF582E43CF58331
:10032100120680FF90002BE0FD900035E02DFD903E
:100331000034E03400FC90002FE0FBA3E0FAA3E0DE
:10034100F98D828C83EF1206AD900035E004F070D8
:1003510006900034E004F0809B900027E0FBA3E0CE
:10036100FAA3E090002D120852900032EEF0A3EFB4
:10037100F0900032E0FF900027E0FBA3E0FAA3E059
:10038100F990002EE024FEFD90002DE034FF8D82D7
:10039100F583EF1206AD900032A3E0FF90002EE04E
:1003A10024FFFD90002DE034FF8D82F583EF1206CE
:1003B100AD90002DE0FFA3E0900005CFF0A3EFF09A
:0B03C100900005E0FCA3E0FD0209280D
:1007A300900001E004F07006900000E004F0900077
:1007B30000E07004A3E06409701090001BF0A30430
:1007C300F0E490001DF0A3F08026900000E0700498
:1007D300A3E06404701AD390001EE0940490001DFB
:1007E300E064809480400990001BE4F0A37408F057
:0907F30090001BE0FEA3E0FF22D0
:030000000205DB1B
:0C05DB00787FE4F6D8FD75811702062237
:10066700BB010689828A83E0225002E722BBFE0291
:09067700E32289828A83E49322C4
:10068000BB010CE58229F582E5833AF583E022502F
:1006900006E92582F8E622BBFE06E92582F8E22279
:0D06A000E58229F582E5833AF583E4932293
:1006AD00F8BB010DE58229F582E5833AF583E8F083
:1006BD00225006E92582C8F622BBFE05E92582C82F
:0206CD00F22217
:1006CF00A3F8E0C5F025F0F0E582158270021583DE
:0606DF00E0C838F0E8223B
:10000E00E4FFFE120667600C0FEF70010E09E97037
:05001E00F20A80EF2250
:1005E7000208A6E493A3F8E493A34003F68001F27C
:1005F70008DFF48029E493A3F85407240CC8C33315
:10060700C4540F4420C8834004F456800146F6DFE3
:10061700E4800B01020408102040809009D1E47E99
:10062700019360BCA3FF543F30E509541FFEE493D8
:10063700A360010ECF54C025E060A840B8E493A39F
:10064700FAE493A3F8E493A3C8C582C8CAC583CACA
:10065700F0A3C8C582C8CAC583CADFE9DEE780BE82
:0109EC00000A
:00000001FF
