:0A0B790042004DEFFF42004FFFCE97
:100C0200E4FDFCC3ED9FEC9E501AE4FBFAC3EB94A7
:100C120072EA940050070BEB70010A80F00DED7040
:040C2200010C80DF62
:010C260022AB
:100BDA00759850758920758780758DFE758BFED244
:100BEA008ED2AC438901758A67758CFCD28CD2A9E6
:080BFA00D2AFE4900047F022A5
:0B09FF0090005EEBF0A3EAF0A3E9F02B
:100A0A00C2ACE4A3F0A3F090005EE0FBA3E0FAA37B
:100A1A00E0F912000E900061E0FCA3E0FDC39FEC38
:100A2A009E502990005EE0FBA3E0FAA3E0F98D82D4
:100A3A008C8312068EF5993099FDC299900062E076
:0E0A4A0004F07006900061E004F080BBD2ACB6
:010A5800227B
:100B4700900047E070FA900049EDF0E4900048F01B
:100B570090004AEBF0A3EAF0A3E9F0900047740194
:100B6700F090004AE0FBA3E0FAA3E0F9120675F55E
:020B77009922C1
:0300230002075879
:10075800C0E0C0F0C083C082C0D075D0102098031C
:030768000207F293
:10076B00C298900047E064017003020828900023B0
:10077B00E599F0900000E4F0A3F090001BE0FEA3DD
:10078B00E0FFEE7062EF24FE604004705A90001D93
:10079B00E4F0A3F0900023E0FFB4012390001DE4EC
:1007AB0075F0011206DDFC740725F0F58274003C30
:1007BB00F583EFF090001BE4F0A37402F080289017
:1007CB00001BE4F0A37404F0801D900023E0FF9065
:1007DB00001DE475F0011206DDFC740725F0F582AF
:0707EB0074003CF583EFF000
:1007F200309933C299900048E004F0A3E0FF9000E2
:1008020048E0C39F4007900047E4F0801990004AF7
:10081200E0FBA3E0FAA3E0F9900048E0F5827583DB
:100822000012068EF599D0D0D082D083D0F0D0E0DD
:010832003293
:03000B00020BAA3B
:100BAA00C0E0C0F0C083C082C0D075D008758A6723
:100BBA00758CFC120A59EF64084E70097B017A00A1
:100BCA0079071208BFD0D0D082D083D0F0D0E032DB
:0803DE0090003DECF0A3EDF0EE
:1003E600E4A3F0A3F0900043F0A304F0900043E0F0
:1003F6007004A3E06401600302053490003EE0242B
:10040600FFFF90003DE034FFFEC3900040E09FEE0A
:100416006480F890003FE06480984003020534E46D
:10042600900043F0A3F0900041F0A304F090003F49
:10043600E0FEA3E0FFC390003EE09FFF90003DE09A
:100446009EFE900041E0FCA3E0FDC39FEE6480F8B1
:10045600EC6480984003020523ED24FFFFEC34FF93
:10046600FEEF25E0FFEE338F82F5831206F3FDAC37
:10047600F0900042E025E0FF900041E0338F82F5E6
:10048600831206F3FFD3ED9FE5F06480F8EC6480F9
:10049600984079900041E0FCA3E0FD24FFFFEC3496
:1004A600FFFEEF25E0FFEE338F82F5831206F3FFA2
:1004B600900045E5F0F0A3EFF0ED25E0FFEC338F7B
:1004C60082F5831206F3FD900042E024FFFF9000C0
:1004D60041E034FFFEEF25E0FFEE338F82F583E542
:1004E600F08DF012072B900045E0FCA3E0FD900094
:1004F60042E025E0FF900041E0338F82F583EC8DEA
:10050600F012072B900043E4F0A304F0900042E0C1
:1005160004F07006900041E004F0020433900040BD
:0E052600E004F0700690003FE004F00203F2E3
:0105340022A4
:0F0B830042005C0000420058001E42005A000071
:100B0000E490003BF0A3F0D2B5C2B6120BDA120C9F
:100B100027120C4290001FE0FFA3E0900058CFF096
:100B2000A3EFF0900021E0FFA3E090005ACFF0A3E4
:100B3000EFF090005AE07002A3E07006C2CAC284CF
:060B400080D2D2CA80CE73
:010B4600228C
:03002B000209992E
:10099900C0E0C083C082C0D075D000C000C006C00E
:1009A90007C2CF90005DE004F0700690005CE0049F
:1009B900F0D390005DE0946490005CE064809480E2
:1009C9004004E4F0A3F0900058E0FEA3E0FFC390D8
:1009D900005DE09FEE6480F890005CE064809850D0
:1009E90004D2848002C284D007D006D000D0D0D0EF
:0609F90082D083D0E03241
:100C420075CDFF75CBFF75CCD275CAD2D2ADD2CAE3
:030C5200D2AF22FC
:10002E0000C1814001C0804101C0804100C18140BA
:10003E0001C0804100C1814000C1814001C08041AA
:10004E0001C0804100C1814000C1814001C080419A
:10005E0000C1814001C0804101C0804100C181408A
:10006E0001C0804100C1814000C1814001C080417A
:10007E0000C1814001C0804101C0804100C181406A
:10008E0000C1814001C0804101C0804100C181405A
:10009E0001C0804100C1814000C1814001C080414A
:1000AE0001C0804100C1814000C1814001C080413A
:1000BE0000C1814001C0804101C0804100C181402A
:1000CE0000C1814001C0804101C0804100C181401A
:1000DE0001C0804100C1814000C1814001C080410A
:1000EE0000C1814001C0804101C0804100C18140FA
:1000FE0001C0804100C1814000C1814001C08041EA
:10010E0001C0804100C1814000C1814001C08041D9
:10011E0000C1814001C0804101C0804100C18140C9
:10012E0000C0C101C30302C2C60607C705C5C40489
:10013E00CC0C0DCD0FCFCE0E0ACACB0BC90908C8F9
:10014E00D81819D91BDBDA1A1EDEDF1FDD1D1CDCE9
:10015E0014D4D515D71716D6D21213D311D1D01059
:10016E00F03031F133F3F23236F6F737F53534F449
:10017E003CFCFD3DFF3F3EFEFA3A3BFB39F9F838B9
:10018E0028E8E929EB2B2AEAEE2E2FEF2DEDEC2CA9
:10019E00E42425E527E7E62622E2E323E12120E019
:1001AE00A06061A163A3A26266A6A767A56564A409
:1001BE006CACAD6DAF6F6EAEAA6A6BAB69A9A86879
:1001CE0078B8B979BB7B7ABABE7E7FBF7DBDBC7C69
:1001DE00B47475B577B7B67672B2B373B17170B0D9
:1001EE0050909151935352929656579755959454C9
:1001FE009C5C5D9D5F9F9E5E5A9A9B5B9959589839
:10020E00884849894B8B8A4A4E8E8F4F8D4D4C8C28
:10021E004484854587474686824243834181804098
:100B92005400072A2A736B6A666E69616F2A2A00FB
:070BA200000000000000004C
:100C27007A00791F9000027401F0A37400F0A37496
:0B0C37001FF090001BE4F0A304F0226B
:10093100900051EBF0A3EAF0A3E9F0A3ECF0A3EDF2
:01094100F0C5
:10094200900051E0FBA3E0FAA3E0F9A3E0FCA3E0EE
:10095200FD24FEFFEC34FF8F82F58312068EFEED3E
:1009620024FFFDEC34FF8D82F58312068EFDEEED41
:10097200FF900056EEF0A3EFF0900054E0A3E024C5
:10098200FEFD120AB2900056E0B50608A3E0B507D4
:06099200037F01227F003B
:01099800223C
:0E0AB200900036EBF0A3EAF0A3E9F0A3EDF01C
:100AC0007DFF7FFFE4A3F0900039E0FE14F0EE60BC
:100AD0002A900036E0FBA3E0FAA3E0F990003AE0A8
:100AE000FE04F08E8275830012068E6FFE90002E3B
:0F0AF000936DFFEE90012E93FD80CCEFFEEDFF96
:010AFF0022D4
:1008BF00900024EBF0A3EAF0A3E9F0900024E0FB12
:1008CF00A3E0FAA3E0F990000112068E24FD600F59
:1008DF0014601124FE601D24F660298035803312C8
:1008EF000535802E900024E0FBA3E0FAA3E0F91277
:1008FF000535801E900024E0FBA3E0FAA3E0F91277
:10090F00022E800E900024E0FBA3E0FAA3E0F91280
:10091F00022E90001BE4F0A304F0E490001DF0A35E
:02092F00F022B4
:0B053500900027EBF0A3EAF0A3E9F030
:10054000E4A3F0A3F0900027E0FBA3E0FAA3E0F916
:1005500090000312068E25E090002AF0900005120C
:10056000068E25E090002BF0E0FD2405FEE433909C
:100570000031F0A3CEF0900002ED1206BB90000215
:10058000E0F9A3E0FAA3E090002CC9F0A3EAF0A3FD
:10059000E9F0E4900033F0A3F090002BE0FF90002E
:1005A00033E0FCA3E0FDC39F7480F8EC64809850B6
:1005B0004990002AE0FF7E00ED2FFFEE3CFE900008
:1005C0002CE0FBA3E0FAA3E0F98F828E8312068E63
:1005D000FF900027E0FBA3E0FAA3E0F9ED2403FD80
:1005E000E43C8D82F583EF1206BB900034E004F00A
:1005F0007006900033E004F0809F900027E0FBA39A
:10060000E0FAA3E0F9900031E0A3E024FEFD120A35
:10061000B290002FEEF0A3EFF090002FE0FF9000DB
:1006200027E0FBA3E0FAA3E0F9900032E024FEFD0E
:10063000900031E034FF8D82F583EF1206BB90000D
:100640002FE0A3E0FF900032E024FFFD900031E0B6
:1006500034FF8D82F583EF1206BB900031E0FFA3DB
:10066000E0900005CFF0A3EFF0900005E0FCA3E0E0
:04067000FD120B4725
:010674002263
:0B022E00900027EBF0A3EAF0A3E9F03A
:1002390090000112068EFF90002AF090000312062A
:100249008E25E090002BF0900002E0F9A3E0FAA3DC
:10025900E090002FC9F0A3EAF0A3E9F0EF6406707B
:1002690063900027E0FBA3E0FAA3E0F990000412F1
:10027900068EFF90002FE0FBA3E0FAA3E0F99000BF
:100289002BE0FEF582758300EF1206BB900027E094
:10029900FBA3E0FAA3E0F990000512068EFFEE2415
:1002A90001FDE433FC90002FE0FBA3E0FAA3E0F9A1
:1002B9008D828C83EF1206BB90002DE4F0A37408A5
:1002C900F002036390002AE0641060030203639064
:1002D9000027E0FBA3E0FAA3E0F990000512068EDF
:1002E90025E090002CF0A3E4F0A37408F0E490005A
:1002F90034F0A3F090002CE0FF900034E0FCA3E080
:10030900FDC39F7480F8EC648098504E900027E0FC
:10031900FBA3E0FAA3E0F9ED2407FFE43C8F82F5A3
:100329008312068EFF90002BE0FD900035E02DFD35
:10033900900034E03400FC90002FE0FBA3E0FAA326
:10034900E0F98D828C83EF1206BB900035E004F052
:100359007006900034E004F0809A900027E0FBA337
:10036900E0FAA3E0F990002DE0A3E024FEFD120AD3
:10037900B2900032EEF0A3EFF0900032E0FF90006F
:1003890027E0FBA3E0FAA3E0F990002EE024FEFDAC
:1003990090002DE034FF8D82F583EF1206BB9000AB
:1003A90032E0A3E0FF90002EE024FFFD90002DE055
:1003B90034FF8D82F583EF1206BB90002DE0FFA379
:1003C900E0900005CFF0A3EFF0900005E0FCA3E07A
:0403D900FD120B47BF
:0103DD0022FD
:100A5900900001E004F07006900000E004F09000BE
:100A690000E07004A3E06409701090001BF0A30477
:100A7900F0E490001DF0A3F08026900000E07004DF
:100A8900A3E06404701AD390001EE0940490001D42
:100A9900E064809480400990001BE4F0A37408F09E
:090AA90090001BE0FEA3E0FF2217
:03000000020833C0
:0C083300787FE4F6D8FD75811702087A82
:10067500BB010689828A83E0225002E722BBFE0283
:09068500E32289828A83E49322B6
:10068E00BB010CE58229F582E5833AF583E0225021
:10069E0006E92582F8E622BBFE06E92582F8E2226B
:0D06AE00E58229F582E5833AF583E4932285
:1006BB00F8BB010DE58229F582E5833AF583E8F075
:1006CB00225006E92582C8F622BBFE05E92582C821
:0206DB00F22209
:1006DD00A3F8E0C5F025F0F0E582158270021583D0
:0606ED00E0C838F0E8222D
:1006F300BB0110E58229F582E5833AF583E0F5F045
:10070300A3E0225009E92582F886F008E622BBFE21
:100713000AE92582F8E2F5F008E222E5832AF58367
:08072300E993F5F0A3E993222C
:10072B00F8BB0111E58229F582E5833AF583E8F000
:10073B00E5F0A3F0225009E92582C8F608A6F022BD
:0D074B00BBFE09E92582C8F2E5F008F222A4
:10000E00E4FFFE120675600C0FEF70010E09E97029
:05001E00F20A80EF2250
:10083F00020B00E493A3F8E493A34003F68001F2C4
:10084F0008DFF48029E493A3F85407240CC8C333BA
:10085F00C4540F4420C8834004F456800146F6DF89
:10086F00E4800B0102040810204080900B79E47E95
:10087F00019360BCA3FF543F30E509541FFEE4937E
:10088F00A360010ECF54C025E060A840B8E493A345
:10089F00FAE493A3F8E493A3C8C582C8CAC583CA70
:1008AF00F0A3C8C582C8CAC583CADFE9DEE780BE28
:010BA900004B
:00000001FF
