:080A46000262EFFF0264FFCE23
:100A2100E4FDFCC3ED9FEC9E501AE4FBFAC3EB948A
:100A310072EA940050070BEB70010A80F00DED7023
:040A4100010C80DF45
:010A4500228E
:1009FA0075985075CAF475CCF475CBFF75CDFF7533
:100A0A00C834D2AC438901758A67758CFCD28CD202
:070A1A00A9D2AFE4F55C2254
:060911008B6D8A6E896FF8
:10091700C2ACE4F570F571AB6DAA6EA96F120AA4AB
:10092700C3E5719FE5709E5020AB6DAA6EA96F85D8
:100937007182857083120463F5993099FDC2990518
:0B09470071E5717002057080CED2AC2B
:010952002282
:100A8600E55C70FC8D5EE4F55D8B5F8A608961755F
:0E0A96005C01AB5FAA60A96112044AF59922C7
:030023000205F7DC
:0E05F700C0E0C083C082C0D075D010309855CF
:10060500C298E55C640160728599387518007519A2
:1006150000E52E7040E52F24FE602C047037753000
:1006250000753100E538B401160531E53170020574
:100635003014241FF8A638752E00752F0280167504
:100645002E00752F04800E0531E53170020530143A
:05065500241FF8A63887
:10065A00309922C299055DE55DC3955E4005755CDA
:10066A00008012AB5FAA60A961AF5D8F82758300BB
:0E067A00120463F599D0D0D082D083D0E03244
:03000B000209CB1C
:1009CB00C0E0C0F0C083C082C0D075D008758A6704
:1009DB00758CFC120990EF64084E7008FB7A007955
:0F09EB001F12087AD0D0D082D083D0F0D0E03263
:04033E008C528D53FD
:10034200E4F554F555F558755901E55964014558D8
:100352006003020449E55324FFFFE55234FFFEC364
:10036200E5559FEE6480F8E55464809840030204EA
:1003720049E4F558F559F556755701C3E5539555B6
:10038200FFE5529554FEC3E5579FEE6480F8E556AB
:10039200648098400302043EE55724FFFFE556348B
:1003A200FFFEEF25E0FFEE338F82F5831204C4FDDA
:1003B200ACF0E55725E0FFE556338F82F583120452
:1003C200C4FFD3ED9FE5F06480F8EC64809840614F
:1003D200E55724FFFFE55634FFFEEF25E0FFEE333D
:1003E2008F82F5831204C4F55B85F05AE55725E048
:1003F200FFE556338F82F5831204C4FDE55724FFCF
:10040200FFE55634FFFEEF25E0FFEE338F82F583E2
:10041200E5F08DF01204FCE55725E0FFE556338F39
:1004220082F583E55A855BF01204FC755800755914
:10043200010557E5577002055602037D0555E5553E
:070442007002055402034C97
:010449002290
:070A4E0002730000017200B9
:100A6700E4F550F551D2A67580FFC2A61209FA1215
:0E0A77000ACD120AB97FC87E00120A2180FE45
:010A8500224E
:100AB90043B78043B880438910758BE0758DB1D2F7
:040AC9008ED2AB22FC
:09000E00D280D281D282D2832279
:10071400E572B40800400302079C900725F82828D6
:100724007302073D02074902075502076102076D7C
:10073400020779020785020791C280D281D282D250
:100744008375720122C280C281D282D28375720201
:1007540022D280C281D282D28375720322D280C215
:1007640081C282D28375720422D280D281C282D2A3
:100774008375720522D280D281C282C283757206C9
:1007840022D280D281D282C28375720722C280D2E1
:0907940081D282C283E4F57222D5
:10079D00E572B4080040030208259007AEF828283A
:1007AD00730207C60207D20207DE0207EA0207F646
:1007BD0002080202080E02081AC280D281D282D229
:1007CD008375720722C280C281D282D283E4F57210
:1007DD0022D280C281D282D28375720122D280C28E
:1007ED0081C282D28375720222D280D281C282D21C
:1007FD008375720322D280D281C282C28375720444
:10080D0022D280D281D282C28375720522C280D259
:09081D0081D282C28375720622A9
:03001B00020826B2
:0D082600C0E0C0F0C083C082C0D075D0001B
:10083300C3E49533FFE49532FE7C007D5C1204B281
:10084300C374769FFF74D89EAD07FF3395E08F8DF9
:100853008D8BE53545346014E5334532600EE5375D
:0C08630045367005120714800312079D33
:0B086F00D0D0D082D083D0F0D0E03297
:1000260000C1814001C0804101C0804100C18140C2
:1000360001C0804100C1814000C1814001C08041B2
:1000460001C0804100C1814000C1814001C08041A2
:1000560000C1814001C0804101C0804100C1814092
:1000660001C0804100C1814000C1814001C0804182
:1000760000C1814001C0804101C0804100C1814072
:1000860000C1814001C0804101C0804100C1814062
:1000960001C0804100C1814000C1814001C0804152
:1000A60001C0804100C1814000C1814001C0804142
:1000B60000C1814001C0804101C0804100C1814032
:1000C60000C1814001C0804101C0804100C1814022
:1000D60001C0804100C1814000C1814001C0804112
:1000E60000C1814001C0804101C0804100C1814002
:1000F60001C0804100C1814000C1814001C08041F2
:1001060001C0804100C1814000C1814001C08041E1
:1001160000C1814001C0804101C0804100C18140D1
:1001260000C0C101C30302C2C60607C705C5C40491
:10013600CC0C0DCD0FCFCE0E0ACACB0BC90908C801
:10014600D81819D91BDBDA1A1EDEDF1FDD1D1CDCF1
:1001560014D4D515D71716D6D21213D311D1D01061
:10016600F03031F133F3F23236F6F737F53534F451
:100176003CFCFD3DFF3F3EFEFA3A3BFB39F9F838C1
:1001860028E8E929EB2B2AEAEE2E2FEF2DEDEC2CB1
:10019600E42425E527E7E62622E2E323E12120E021
:1001A600A06061A163A3A26266A6A767A56564A411
:1001B6006CACAD6DAF6F6EAEAA6A6BAB69A9A86881
:1001C60078B8B979BB7B7ABABE7E7FBF7DBDBC7C71
:1001D600B47475B577B7B67672B2B373B17170B0E1
:1001E60050909151935352929656579755959454D1
:1001F6009C5C5D9D5F9F9E5E5A9A9B5B9959589841
:10020600884849894B8B8A4A4E8E8F4F8D4D4C8C30
:1002160044848545874746868242438341818040A0
:100A55000F1F2A2A736B6A666E69616F2A2A000066
:010A65000090
:100ACD007A007932751A00751B00751C32752E006F
:040ADD00752F01224E
:0A08C9008B668A6789688C698D6A66
:1008D300E56A24FEFFE56934FF8F82F58312046322
:1008E300FEE56A24FFFDE56934FF8D82F58312047A
:1008F30063FDEEF56BEDF56CE56A24FEFD1209531D
:0D090300EFB56C07EEB56B037F01227F009E
:0109100022C4
:080953008B4B8A4C894D8D4E3F
:10095B007DFF7FFFE4F54FAE4E154EEE6022AB4BA5
:10096B00AA4CA94DAE4F054F8E82758300120463BE
:10097B006FFE900026936DFFEE90012693FD80D7BE
:04098B00EFFEEDFF8F
:01098F002245
:10087A008B398A3A893B90000112046324FD600F88
:10088A0014601124FE601824F6601F80268024124A
:10089A000529801FAB39AA3AA93B1205298014AB56
:1008AA0039AA3AA93B1202268009AB39AA3AA93BCE
:0F08BA00120226752E00752F01E4F530F531225C
:060529008B3C8A3D893E77
:10052F00E4F53FF54090000312046325E0F53F909A
:10053F00000512046325E0F5402405F547E433F583
:10054F0046900002E540120490851A41851B4285B2
:10055F001C43E4F548F549C3E54995407480F865B7
:10056F00489850387E00E549253FFFEE3548AB41AE
:10057F00AA42A9438F82F583120463FFAB3CAA3DC5
:10058F00A93EE5492403FDE435488D82F583EF123A
:10059F0004900549E5497002054880BBAB3CAA3D74
:1005AF00A93EE54724FEFD1209538E448F45E544CD
:1005BF00FFAB3CAA3DA93EE54724FEFDE54634FFCF
:1005CF008D82F583EF120490E54724FFFDE5463455
:1005DF00FF8D82F583E54512049085461D85471EE4
:0705EF00AD1EAC1D120A86CF
:0105F60022E2
:060226008B3C8A3D893E7D
:10022C00900001120463F53F90000312046325E073
:10023C00F540851A44851B45851C46E53F640670D0
:10024C003F900004120463AB44AA45A94685408242
:10025C00758300120490AB3CAA3DA93E9000051298
:10026C000463FFE5402401FDE433AB44AA45A946F1
:10027C008D82F583EF1204907542007543088066F9
:10028C00E53F64107060AB3CAA3DA93E900005129E
:10029C00046325E0F541754200754308E4F549F522
:1002AC004AC3E54A95417480F86549985038AB3C8F
:1002BC00AA3DA93EE54A2407FFE435498F82F58320
:1002CC00120463FFE5407C00254AFDEC3549AB4444
:1002DC00AA45A9468D82F583EF120490054AE54A9A
:1002EC007002054980BBAB3CAA3DA93EE54324FE08
:1002FC00FD1209538E478F48E547FFAB3CAA3DA939
:10030C003EE54324FEFDE54234FF8D82F583EF127A
:10031C000490E54324FFFDE54234FF8D82F583E52F
:10032C004812049085421D85431EAD1EAC1D120A59
:01033C00863A
:01033D00229D
:100990000519E51970020518E51964094518700B69
:1009A000F52E752F01F530F531801BE519640445EE
:1009B000187013D3E5319404E530648094804006C8
:0B09C000752E00752F08AE2EAF2F2201
:030000000206886D
:0C068800787FE4F6D8FD7581740206CF7F
:10044A00BB010689828A83E0225002E722BBFE02B0
:09045A00E32289828A83E49322E3
:10046300BB010CE58229F582E5833AF583E022504E
:1004730006E92582F8E622BBFE06E92582F8E22298
:0D048300E58229F582E5833AF583E49322B2
:10049000F8BB010DE58229F582E5833AF583E8F0A2
:1004A000225006E92582C8F622BBFE05E92582C84E
:0204B000F22236
:1004B200EF8DF0A4A8F0CF8CF0A428CE8DF0A42E5E
:0204C200FE2218
:1004C400BB0110E58229F582E5833AF583E0F5F076
:1004D400A3E0225009E92582F886F008E622BBFE53
:1004E4000AE92582F8E2F5F008E222E5832AF58399
:0804F400E993F5F0A3E993225E
:1004FC00F8BB0111E58229F582E5833AF583E8F032
:10050C00E5F0A3F0225009E92582C8F608A6F022EE
:0D051C00BBFE09E92582C8F2E5F008F222D5
:100AA400E4FFFE12044A600C0FEF70010E09E970B6
:050AB400F20A80EF22B0
:10069400020A67E493A3F8E493A34003F68001F20B
:1006A40008DFF48029E493A3F85407240CC8C33367
:1006B400C4540F4420C8834004F456800146F6DF36
:1006C400E4800B0102040810204080900A46E47E76
:1006D400019360BCA3FF543F30E509541FFEE4932B
:1006E400A360010ECF54C025E060A840B8E493A3F2
:1006F400FAE493A3F8E493A3C8C582C8CAC583CA1D
:10070400F0A3C8C582C8CAC583CADFE9DEE780BED4
:010A6600008F
:00000001FF
