:10090800759850758920758780758DFE758BFED218
:100918008ED2AC438901758A67758CFCD28CD2A9BA
:08092800D2AFE4900049F02277
:0B07FC0090004FEBF0A3EAF0A3E9F03F
:10080700E4A3F0A3F090004FE0FBA3E0FAA3E0F924
:1008170012000E900052E0FCA3E0FDC39FEC9E5037
:100827002990004FE0FBA3E0FAA3E0F98D828C83C7
:10083700120680F5993099FDC299900053E004F0B3
:0A08470070C3900052E004F080BB83
:010851002284
:1008A600900049E070FA90004BEDF0E490004AF0B9
:1008B60090004CEBF0A3EAF0A3E9F0900049740134
:1008C600F090004CE0FBA3E0FAA3E0F9120667F50E
:0208D600992265
:03002300020500D3
:10050000C0E0C0F0C083C082C0D075D01020980376
:0305100002059A47
:10051300C298900049E0640170030205D09000295D
:10052300E599F0900000E4F0A3F090001BE0FEA337
:10053300E0FFEE7062EF24FE604004705A90001DED
:10054300E4F0A3F0900029E0FFB4012390001DE440
:1005530075F0011206CFFC740725F0F58274003C98
:10056300F583EFF090001BE4F0A37402F080289071
:10057300001BE4F0A37404F0801D900029E0FF90B9
:10058300001DE475F0011206CFFC740725F0F58217
:0705930074003CF583EFF05A
:10059A00309933C29990004AE004F0A3E0FF90003A
:1005AA004AE0C39F4007900049E4F0801990004C4C
:1005BA00E0FBA3E0FAA3E0F990004AE0F582758334
:1005CA0000120680F599D0D0D082D083D0F0D0E046
:0105DA0032EE
:03000B000208D810
:1008D800C0E0C0F0C083C082C0D075D008758A67F8
:1008E800758CFC1207A3EF64084E70097B017A002F
:1008F8007907120744D0D0D082D083D0F0D0E0322C
:05000300120008D2A369
:0100080022D5
:10097900E4FDFCC3ED9FEE6480F8EC648098500EB2
:0E098900E4FB0BEBB472FB0DBD00010C80E52E
:01099700223D
:0A0A3900D2A4120003C2A4020008B8
:0A0A4300C2A4120003D2A4020008AE
:08095600120A397F9012099882
:10095E00D2A312000830A40E900041E0C394FA50C6
:0B096E0005E004F080EFC2A3020008C7
:0A0A4D00D2A4120008D2A302000890
:10093000C2A3120008D2A4120008E4FED2A312003F
:1009400008EF25E0FDA2A4E4334DFFC2A312000886
:050950000EEEB408E703
:01095500227F
:10099800E4FEEF25E0FFC2A312000892A4120003B0
:0F09A8000EEEB408EDC2A3120008D2A40200089C
:1009F200AC07120956AF0412099812095EAF05122C
:080A0200099812095E020A4383
:0209B700AD078A
:1009B900120956AF0512099812095E120A397F9178
:0C09C90012099812095E120930120A434C
:0109D50022FF
:1009D600120908120A227F421209B7900023E4F096
:0C09E600A3EFF07F017E0012097980EA87
:1000260000C1814001C0804101C0804100C18140C2
:1000360001C0804100C1814000C1814001C08041B2
:1000460001C0804100C1814000C1814001C08041A2
:1000560000C1814001C0804101C0804100C1814092
:1000660001C0804100C1814000C1814001C0804182
:1000760000C1814001C0804101C0804100C1814072
:1000860000C1814001C0804101C0804100C1814062
:1000960001C0804100C1814000C1814001C0804152
:1000A60001C0804100C1814000C1814001C0804142
:1000B60000C1814001C0804101C0804100C1814032
:1000C60000C1814001C0804101C0804100C1814022
:1000D60001C0804100C1814000C1814001C0804112
:1000E60000C1814001C0804101C0804100C1814002
:1000F60001C0804100C1814000C1814001C08041F2
:1001060001C0804100C1814000C1814001C08041E1
:1001160000C1814001C0804101C0804100C18140D1
:1001260000C0C101C30302C2C60607C705C5C40491
:10013600CC0C0DCD0FCFCE0E0ACACB0BC90908C801
:10014600D81819D91BDBDA1A1EDEDF1FDD1D1CDCF1
:1001560014D4D515D71716D6D21213D311D1D01061
:10016600F03031F133F3F23236F6F737F53534F451
:100176003CFCFD3DFF3F3EFEFA3A3BFB39F9F838C1
:1001860028E8E929EB2B2AEAEE2E2FEF2DEDEC2CB1
:10019600E42425E527E7E62622E2E323E12120E021
:1001A600A06061A163A3A26266A6A767A56564A411
:1001B6006CACAD6DAF6F6EAEAA6A6BAB69A9A86881
:1001C60078B8B979BB7B7ABABE7E7FBF7DBDBC7C71
:1001D600B47475B577B7B67672B2B373B17170B0E1
:1001E60050909151935352929656579755959454D1
:1001F6009C5C5D9D5F9F9E5E5A9A9B5B9959589841
:10020600884849894B8B8A4A4E8E8F4F8D4D4C8C30
:1002160044848545874746868242438341818040A0
:100A0A005400072A2A736B6A666E69616F2A2A0084
:070A1A0000000000000000D5
:100A22009000027401F0A37400F0A3741FF0900010
:070A32001BE4F0A304F02215
:1006E500900042EBF0A3EAF0A3E9F0A3ECF0A3ED50
:0106F500F014
:1006F600900042E0FBA3E0FAA3E0F9A3E0FCA3E04C
:10070600FD24FEF58274FF3CF583120680FE74FF1D
:100716002DF58274FF3CF583120680FDEDFF9000F7
:1007260047EEF0A3EFF0900045120853900047E023
:0D073600B50608A3E0B507037F01227F0090
:010743002293
:06085200F9A3E024FEFD05
:0E08580090003CEBF0A3EAF0A3E9F0A3EDF072
:100866007DFF7FFFE4A3F090003FE0FE14F0EE6012
:100876002A90003CE0FBA3E0FAA3E0F9900040E0F8
:10088600FE04F08E827583001206806FFE900026AD
:0F089600936DFFEE90012693FD80CCEFFEEDFFFA
:0108A5002230
:1007440090002AEBF0A3EAF0A3E9F090002AE0FB82
:10075400A3E0FAA3E0F990000112068024FD600DE5
:1007640014600C24FE601824F660168022800B901E
:10077400002AE0FBA3E0FAA3E0F91203CC80108086
:100784000090002AE0FBA3E0FAA3E0F9120226900D
:0F079400001BE4F0A304F0E490001DF0A3F0229A
:0B03CC0090002DEBF0A3EAF0A3E9F095
:1003D700E4A3F0A3F090002DE0FBA3E0FAA3E0F97B
:1003E70090000312068025E0900030F0900005127F
:1003F700068025E0900031F0E0FD2405FEE433900F
:100407000037F0A3CEF0900002ED1206AD90000287
:10041700E0F9A3E0FAA3E0900032C9F0A3EAF0A361
:10042700E9F0E4900039F0A3F0900031E0FF90008C
:1004370039E0FCA3E0FDC39F7480F8EC648098501A
:1004470046900030E0FF7E00ED2FFFEE3CFE90006F
:1004570032E0FBA3E0FAA3E0F98F828E83120680D5
:10046700FF90002DE0FBA3E0FAA3E0F98D828C83D7
:10047700A3A3A3EF1206AD90003AE004F070AA9090
:100487000039E004F080A290002DE0FBA3E0FAA37E
:10049700E0900037120852900035EEF0A3EFF0908D
:1004A7000035E0FF90002DE0FBA3E0FAA3E0F99010
:1004B7000038E024FEFD900037E034FF8D82F5839D
:1004C700EF1206AD900035A3E0FF900038E024FF5F
:1004D700FD900037E034FF8D82F583EF1206AD9073
:1004E7000037E0FFA3E0900005CFF0A3EFF0900006
:0904F70005E0FCA3E0FD0208A6EB
:0B02260090002DEBF0A3EAF0A3E9F03C
:10023100900001120680FF900030F090000312063A
:100241008025E0900031F0900002E0F9A3E0FAA3EC
:10025100E0900035C9F0A3EAF0A3E9F0EF6406707D
:100261006390002DE0FBA3E0FAA3E0F990000412F3
:100271000680FF900035E0FBA3E0FAA3E0F99000CF
:1002810031E0FEF582758300EF1206AD90002DE09E
:10029100FBA3E0FAA3E0F9900005120680FFEE242B
:1002A10001FDE433FC900035E0FBA3E0FAA3E0F9A3
:1002B1008D828C83EF1206AD900033E4F0A37408B5
:1002C100F002035A900030E06410600302035A9078
:1002D100002DE0FBA3E0FAA3E0F9900005120680EF
:1002E10025E0900032F0A3E4F0A37408F0E490005C
:1002F1003AF0A3F0900032E0FF90003AE0FCA3E076
:10030100FDC39F7480F8EC648098504D90002DE0FF
:10031100FBA3E0FAA3E0F974072DF582E43CF58331
:10032100120680FF900031E0FD90003BE02DFD9032
:10033100003AE03400FC900035E0FBA3E0FAA3E0D2
:10034100F98D828C83EF1206AD90003BE004F070D2
:100351000690003AE004F0809B90002DE0FBA3E0C2
:10036100FAA3E0900033120852900038EEF0A3EFA8
:10037100F0900038E0FF90002DE0FBA3E0FAA3E04D
:10038100F9900034E024FEFD900033E034FF8D82CB
:10039100F583EF1206AD900038A3E0FF900034E042
:1003A10024FFFD900033E034FF8D82F583EF1206C8
:1003B100AD900033E0FFA3E0900005CFF0A3EFF094
:0B03C100900005E0FCA3E0FD0208A690
:1007A300900001E004F07006900000E004F0900077
:1007B30000E07004A3E06409701090001BF0A30430
:1007C300F0E490001DF0A3F08026900000E0700498
:1007D300A3E06404701AD390001EE0940490001DFB
:1007E300E064809480400990001BE4F0A37408F057
:0907F30090001BE0FEA3E0FF22D0
:030000000205DB1B
:0C05DB00787FE4F6D8FD75811702062237
:10066700BB010689828A83E0225002E722BBFE0291
:09067700E32289828A83E49322C4
:10068000BB010CE58229F582E5833AF583E022502F
:1006900006E92582F8E622BBFE06E92582F8E22279
:0D06A000E58229F582E5833AF583E4932293
:1006AD00F8BB010DE58229F582E5833AF583E8F083
:1006BD00225006E92582C8F622BBFE05E92582C82F
:0206CD00F22217
:1006CF00A3F8E0C5F025F0F0E582158270021583DE
:0606DF00E0C838F0E8223B
:10000E00E4FFFE120667600C0FEF70010E09E97037
:05001E00F20A80EF2250
:1005E7000209D6E493A3F8E493A34003F68001F24B
:1005F70008DFF48029E493A3F85407240CC8C33315
:10060700C4540F4420C8834004F456800146F6DFE3
:10061700E4800B0102040810204080900A0AE47E5F
:10062700019360BCA3FF543F30E509541FFEE493D8
:10063700A360010ECF54C025E060A840B8E493A39F
:10064700FAE493A3F8E493A3C8C582C8CAC583CACA
:10065700F0A3C8C582C8CAC583CADFE9DEE780BE82
:010A210000D4
:00000001FF
