:0A0D3400420055EFFF420057FFCECA
:100DF300E4FDFCC3ED9FEC9E501AE4FBFAC3EB94B5
:100E030072EA940050070BEB70010A80F00DED704D
:040E1300010C80DF6F
:010E170022B8
:100DCA0075985075CAF475CCF475CBFF75CDFF755F
:100DDA00C834D2AC438901758A67758CFCD28CD22F
:090DEA00A9D2AFE490004FF02201
:0B0B5300900066EBF0A3EAF0A3E9F0CD
:100B5E00C2ACE4A3F0A3F0900066E0FBA3E0FAA31E
:100B6E00E0F9120E5F900069E0FCA3E0FDC39FEC7C
:100B7E009E5029900066E0FBA3E0FAA3E0F98D8277
:100B8E008C8312003FF5993099FDC29990006AE06E
:0E0B9E0004F07006900069E004F080BBD2AC59
:010BAC002226
:100D680090004FE070FA900051EDF0E4900050F0E0
:100D7800900052EBF0A3EAF0A3E9F090004F740161
:100D8800F0900052E0FBA3E0FAA3E0F9120026F588
:020D980099229E
:0300230002087957
:10087900C0E0C0F0C083C082C0D075D010209803FA
:030889000209134E
:10088C00C29890004FE06401700302094990002562
:10089C00E599F0900000E4F0A3F090001BE0FEA3BB
:1008AC00E0FFEE7062EF24FE604004705A90001D71
:1008BC00E4F0A3F0900025E0FFB4012390001DE4C8
:1008CC0075F00112008EFC740725F0F58274003C63
:1008DC00F583EFF090001BE4F0A37402F0802890F5
:1008EC00001BE4F0A37404F0801D900025E0FF9041
:1008FC00001DE475F00112008EFC740725F0F582E2
:07090C0074003CF583EFF0DD
:10091300309933C299900050E004F0A3E0FF9000B7
:1009230050E0C39F400790004FE4F08019900052BD
:10093300E0FBA3E0FAA3E0F9900050E0F5827583B1
:100943000012003FF599D0D0D082D083D0F0D0E010
:010953003271
:03000B00020D9A49
:100D9A00C0E0C0F0C083C082C0D075D008758A6731
:100DAA00758CFC120BADEF64084E70097B017A005A
:100DBA007907120A79D0D0D082D083D0F0D0E0322D
:0805E200900045ECF0A3EDF0E0
:1005EA00E4A3F0A3F090004BF0A304F090004BE0DA
:1005FA007004A3E064016003020738900046E02417
:10060A00FFFF900045E034FFFEC3900048E09FEEF4
:10061A006480F8900047E06480984003020738E459
:10062A0090004BF0A3F0900049F0A304F09000472B
:10063A00E0FEA3E0FFC3900046E09FFF900045E084
:10064A009EFE900049E0FCA3E0FDC39FEE6480F8A3
:10065A00EC6480984003020727ED24FFFFEC34FF87
:10066A00FEEF25E0FFEE338F82F5831200A4FDAC86
:10067A00F090004AE025E0FF900049E0338F82F5D0
:10068A00831200A4FFD3ED9FE5F06480F8EC648048
:10069A00984079900049E0FCA3E0FD24FFFFEC3488
:1006AA00FFFEEF25E0FFEE338F82F5831200A4FFF1
:1006BA0090004DE5F0F0A3EFF0ED25E0FFEC338F6D
:1006CA0082F5831200A4FD90004AE024FFFF900007
:1006DA0049E034FFFEEF25E0FFEE338F82F583E534
:1006EA00F08DF01200DC90004DE0FCA3E0FD9000DC
:1006FA004AE025E0FF900049E0338F82F583EC8DD4
:10070A00F01200DC90004BE4F0A304F090004AE001
:10071A0004F07006900049E004F0020637900048A1
:0E072A00E004F07006900047E004F00205F6CF
:01073800229E
:100D3E004100600042006200004100610042006418
:020D4E000000A3
:100C0600E490003DF0A3F0120DCA120E18120E4A1F
:100C1600120954900064EEF0A3EFF0D39400EE6452
:100C26008094804024D3E094E8900064E06480944B
:100C36008340077403F0A374E8F0900064E0FFA318
:100C4600E090001FCFF0A3EFF07F647E00120DF35B
:020C560080BE5E
:010C58002279
:100E4A00C2B2438910E4F58DF58BC28ED2ABC2AA29
:050E5A00C28AD2AF22A4
:03001300020CA735
:100CA700C0E0C083C082C0D075D000C004C005C0FA
:100CB70006C007900060E0B4031EAF8DEFFEAD8B5A
:100CC7007C00E42DFFEC3E900062F0A3EFF0C2AA97
:100CD700C28E9000607404F0D007D006D005D0040F
:090CE700D0D0D082D083D0E032DD
:03001B00020E339F
:100E3300C0E0C083C082C28EC2AA9000607405F075
:070E4300D082D083D0E03221
:1009540074FF90003FF0A3F0900060E07036C2A9ED
:10096400C2ACD2B204F0E4F58DF58BD28EE58BC324
:10097400940B40F99000607402F0C2B2E4F58DF576
:100984008BC28E30B3FDD2AAD28E9000607403F075
:0B099400D2A9D2AC900060E0B4043C9B
:10099F00900062E0FEA3E0FFE4FCFD7B547A01F9D6
:1009AF00F8120109E47BD07A07F9F8120CF09000E5
:1009BF0041120158900041E0A3E0A3E0FFA3E090B3
:0C09CF00003FCFF0A3EFF0E4900060F0D8
:1009DB00900060E0B40502E4F090003FE0FEA3E07D
:0109EB00FF0C
:0109EC0022E8
:1002320000C1814001C0804101C0804100C18140B4
:1002420001C0804100C1814000C1814001C08041A4
:1002520001C0804100C1814000C1814001C0804194
:1002620000C1814001C0804101C0804100C1814084
:1002720001C0804100C1814000C1814001C0804174
:1002820000C1814001C0804101C0804100C1814064
:1002920000C1814001C0804101C0804100C1814054
:1002A20001C0804100C1814000C1814001C0804144
:1002B20001C0804100C1814000C1814001C0804134
:1002C20000C1814001C0804101C0804100C1814024
:1002D20000C1814001C0804101C0804100C1814014
:1002E20001C0804100C1814000C1814001C0804104
:1002F20000C1814001C0804101C0804100C18140F4
:1003020001C0804100C1814000C1814001C08041E3
:1003120001C0804100C1814000C1814001C08041D3
:1003220000C1814001C0804101C0804100C18140C3
:1003320000C0C101C30302C2C60607C705C5C40483
:10034200CC0C0DCD0FCFCE0E0ACACB0BC90908C8F3
:10035200D81819D91BDBDA1A1EDEDF1FDD1D1CDCE3
:1003620014D4D515D71716D6D21213D311D1D01053
:10037200F03031F133F3F23236F6F737F53534F443
:100382003CFCFD3DFF3F3EFEFA3A3BFB39F9F838B3
:1003920028E8E929EB2B2AEAEE2E2FEF2DEDEC2CA3
:1003A200E42425E527E7E62622E2E323E12120E013
:1003B200A06061A163A3A26266A6A767A56564A403
:1003C2006CACAD6DAF6F6EAEAA6A6BAB69A9A86873
:1003D20078B8B979BB7B7ABABE7E7FBF7DBDBC7C63
:1003E200B47475B577B7B67672B2B373B17170B0D3
:1003F20050909151935352929656579755959454C3
:100402009C5C5D9D5F9F9E5E5A9A9B5B9959589832
:10041200884849894B8B8A4A4E8E8F4F8D4D4C8C22
:100422004484854587474686824243834181804092
:100D50005400072A2A736B6A666E69616F2A2A003B
:070D6000000000000000008C
:100E18007A00791F9000027401F0A37400F0A374A3
:0B0E28001FF090001BE4F0A304F02278
:100AEB00900059EBF0A3EAF0A3E9F0A3ECF0A3ED2F
:010AFB00F00A
:100AFC00900059E0FBA3E0FAA3E0F9A3E0FCA3E02B
:100B0C00FD24FEFFEC34FF8F82F58312003FFEEDD7
:100B1C0024FFFDEC34FF8D82F58312003FFDEEEDDA
:100B2C00FF90005EEEF0A3EFF090005CE0A3E024F9
:100B3C00FEFD120C5990005EE0B50608A3E0B50767
:060B4C00037F01227F007F
:010B52002280
:0E0C5900900038EBF0A3EAF0A3E9F0A3EDF071
:100C67007DFF7FFFE4A3F090003BE0FE14F0EE6011
:100C77002A900038E0FBA3E0FAA3E0F990003CE0FB
:100C8700FE04F08E8275830012003F6FFE900232E1
:0F0C9700936DFFEE90033293FD80CCEFFEEDFFE7
:010CA600222B
:100A7900900026EBF0A3EAF0A3E9F0900026E0FB52
:100A8900A3E0FAA3E0F990000112003F24FD600FF2
:100A990014601124FE601D24F6602980358033120C
:100AA9000739802E900026E0FBA3E0FAA3E0F912B3
:100AB9000739801E900026E0FBA3E0FAA3E0F912B3
:100AC9000432800E900026E0FBA3E0FAA3E0F912BD
:100AD900043290001BE4F0A304F0E490001DF0A39D
:020AE900F022F9
:0B073900900029EBF0A3EAF0A3E9F028
:10074400E4A3F0A3F0900029E0FBA3E0FAA3E0F90E
:1007540090000312003F25E090002CF09000051259
:10076400003F25E090002DF0E0FD2405FEE43390E9
:100774000033F0A3CEF0900002ED12006C90000262
:10078400E0F9A3E0FAA3E090002EC9F0A3EAF0A3F5
:10079400E9F0E4900035F0A3F090002DE0FF900024
:1007A40035E0FCA3E0FDC39F7480F8EC64809850AE
:1007B4004990002CE0FF7E00ED2FFFEE3CFE900000
:1007C4002EE0FBA3E0FAA3E0F98F828E8312003FB0
:1007D400FF900029E0FBA3E0FAA3E0F9ED2403FD78
:1007E400E43C8D82F583EF12006C900036E004F057
:1007F4007006900035E004F0809F900029E0FBA390
:10080400E0FAA3E0F9900033E0A3E024FEFD120C2B
:1008140059900031EEF0A3EFF0900031E0FF90002A
:1008240029E0FBA3E0FAA3E0F9900034E024FEFD04
:10083400900033E034FF8D82F583EF12006C90005A
:1008440031E0A3E0FF900034E024FFFD900033E0AA
:1008540034FF8D82F583EF12006C900033E0FFA328
:10086400E0900005CFF0A3EFF0900005E0FCA3E0DA
:04087400FD120D68FC
:01087800225D
:0B043200900029EBF0A3EAF0A3E9F032
:10043D0090000112003FFF90002CF090000312007D
:10044D003F25E090002DF0900002E0F9A3E0FAA323
:10045D00E0900031C9F0A3EAF0A3E9F0EF64067073
:10046D0063900029E0FBA3E0FAA3E0F990000412E9
:10047D00003FFF900031E0FBA3E0FAA3E0F990000C
:10048D002DE0FEF582758300EF12006C900029E0DF
:10049D00FBA3E0FAA3E0F990000512003FFFEE2464
:1004AD0001FDE433FC900031E0FBA3E0FAA3E0F999
:1004BD008D828C83EF12006C90002FE4F0A37408F2
:1004CD00F002056790002CE0641060030205679050
:1004DD000029E0FBA3E0FAA3E0F990000512003F2C
:1004ED0025E090002EF0A3E4F0A37408F0E4900052
:1004FD0036F0A3F090002EE0FF900036E0FCA3E074
:10050D00FDC39F7480F8EC648098504E900029E0F4
:10051D00FBA3E0FAA3E0F9ED2407FFE43C8F82F59D
:10052D008312003FFF90002DE0FD900037E02DFD80
:10053D00900036E03400FC900031E0FBA3E0FAA31C
:10054D00E0F98D828C83EF12006C900037E004F09F
:10055D007006900036E004F0809A900029E0FBA32D
:10056D00E0FAA3E0F990002FE0A3E024FEFD120CC9
:10057D0059900034EEF0A3EFF0900034E0FF9000BE
:10058D0029E0FBA3E0FAA3E0F9900030E024FEFDA2
:10059D0090002FE034FF8D82F583EF12006C9000F8
:1005AD0034E0A3E0FF900030E024FFFD90002FE049
:1005BD0034FF8D82F583EF12006C90002FE0FFA3C6
:1005CD00E0900005CFF0A3EFF0900005E0FCA3E074
:0405DD00FD120D6896
:0105E10022F7
:100BAD00900001E004F07006900000E004F0900069
:100BBD0000E07004A3E06409701090001BF0A30422
:100BCD00F0E490001DF0A3F08026900000E070048A
:100BDD00A3E06404701AD390001EE0940490001DED
:100BED00E064809480400990001BE4F0A37408F049
:090BFD0090001BE0FEA3E0FF22C2
:030000000209ED05
:0C09ED00787FE4F6D8FD758117020A340B
:10002600BB010689828A83E0225002E722BBFE02D8
:09003600E32289828A83E493220B
:10003F00BB010CE58229F582E5833AF583E0225076
:10004F0006E92582F8E622BBFE06E92582F8E222C0
:0D005F00E58229F582E5833AF583E49322DA
:10006C00F8BB010DE58229F582E5833AF583E8F0CA
:10007C00225006E92582C8F622BBFE05E92582C876
:02008C00F2225E
:10008E00A3F8E0C5F025F0F0E58215827002158325
:06009E00E0C838F0E82282
:1000A400BB0110E58229F582E5833AF583E0F5F09A
:1000B400A3E0225009E92582F886F008E622BBFE77
:1000C4000AE92582F8E2F5F008E222E5832AF583BD
:0800D400E993F5F0A3E9932282
:1000DC00F8BB0111E58229F582E5833AF583E8F056
:1000EC00E5F0A3F0225009E92582C8F608A6F02213
:0D00FC00BBFE09E92582C8F2E5F008F222FA
:10010900E88FF0A4CC8BF0A42CFCE98EF0A42CFC95
:100119008AF0EDA42CFCEA8EF0A4CDA8F08BF0A413
:100129002DCC3825F0FDE98FF0A42CCD35F0FCEB72
:100139008EF0A4FEA9F0EB8FF0A4CFC5F02ECD3937
:0F014900FEE43CFCEAA42DCE35F0FDE43CFC22A4
:100CF000C2D5E830E70FB2D5E4C39BFBE49AFAE42F
:100D000099F9E498F8EC30E717B2D5120D261201E4
:100D1000A0E4C39BFBE49AFAE499F9E498F8800311
:100D20001201A030D50DE4C39FFFE49EFEE49DFDBB
:040D3000E49CFC2221
:0C015800ECF0A3EDF0A3EEF0A3EFF0221A
:100E5F00E4FFFE120026600C0FEF70010E09E9701F
:050E6F00F20A80EF22F1
:1009F900020C06E493A3F8E493A34003F68001F202
:100A090008DFF48029E493A3F85407240CC8C333FE
:100A1900C4540F4420C8834004F456800146F6DFCD
:100A2900E4800B0102040810204080900D34E47E1C
:100A3900019360BCA3FF543F30E509541FFEE493C2
:100A4900A360010ECF54C025E060A840B8E493A389
:100A5900FAE493A3F8E493A3C8C582C8CAC583CAB4
:100A6900F0A3C8C582C8CAC583CADFE9DEE780BE6C
:010D6700008B
:1001640075F008758200EF2FFFEE33FECD33CDCC52
:1001740033CCC58233C5829BED9AEC99E5829840D5
:100184000CF582EE9BFEED9AFDEC99FC0FD5F0D6B2
:10019400E4CEFBE4CDFAE4CCF9A88222B800C1B9DC
:1001A4000059BA002DEC8BF084CFCECDFCE5F0CB1A
:1001B400F97818EF2FFFEE33FEED33FDEC33FCEB53
:1001C40033FB10D703994004EB99FB0FD8E5E4F90E
:1001D400FA227818EF2FFFEE33FEED33FDEC33FCFB
:1001E400C933C910D7059BE99A4007EC9BFCE99AEF
:1001F400F90FD8E0E4C9FAE4CCFB2275F010EF2F34
:10020400FFEE33FEED33FDCC33CCC833C810D70733
:100214009BEC9AE899400AED9BFDEC9AFCE899F86E
:0E0224000FD5F0DAE4CDFBE4CCFAE4C8F92201
:00000001FF
